:100000000C94B1000C94CE000C94CE000C94CE0055
:100010000C94CE000C94CE000C94CE000C94CE0028
:100020000C94CE000C94CE000C94CE000C94CE0018
:100030000C94CE000C94CE000C94CE000C94CE0008
:100040000C94CE000C94CE000C94CE000C94CE00F8
:100050000C94CE000C94CE000C94CE000C94CE00E8
:100060000C94CE000C94CE0000407A10F35A00A0FD
:10007000724E18090010A5D4E80000E87648170071
:1000800000E40B54020000CA9A3B000000E1F505B1
:10009000000080969800000040420F000000A086FB
:1000A00001000000102700000000E803000000002D
:1000B0006400000000000A000000000001000000D1
:1000C00000002C76D888DC674F0823DFC1DFAE59EB
:1000D000E1B1B796E5E3E453C63AE651997696E87E
:1000E000E6C28426EB898C9B62ED407C6FFCEFBC02
:1000F0009C9F40F2BAA56FA5F490055A2AF75C932D
:100100006B6CF9676DC11BFCE0E40D47FEF520E662
:10011000B500D0ED902E0300943577050080841E45
:10012000080000204E0A000000C80C333333330FA0
:10013000986E12831141EF8D2114893BE65516CF3D
:10014000FEE6DB18D1844B381BF77C1D901DA4BB49
:10015000E424203284725E228100C9F124ECA1E5FE
:100160003D2711241FBECFEFD8E0DEBFCDBF11E089
:10017000A0E0B1E0EEE3F8E102C005900D92A037F7
:10018000B107D9F721E0A0E7B1E001C01D92AC387A
:10019000B207E1F70E942A030C941D0C0C94000096
:1001A0001092B90088E48093B800089594EA90937F
:1001B000BC00ECEBF0E090819923ECF79091B90052
:1001C000987F903199F48093BB0084E88093BC00C1
:1001D000ECEBF0E080818823ECF78091B900887F18
:1001E000803431F0803231F083E0089580E008956A
:1001F00081E0089582E0089584E98093BC00ECEBEF
:10020000F0E0808184FDFDCF0895BF92CF92DF9210
:10021000EF92FF920F931F93CF93DF93B82ECCEB07
:10022000D0E00F2EF4EADF2EF02D09EB10E00F2EB8
:10023000FBEBEF2EF12CF02D0F2EF4E8CF2EF02D4E
:10024000D88288818823ECF7F8018081887F883004
:10025000B9F7F701B082C88288818823ECF7F801EA
:100260008081887F883119F00E94FC00E9CFDF91FE
:10027000CF911F910F91FF90EF90DF90CF90BF90A3
:1002800008958093BB0084E88093BC00ECEBF0E021
:1002900080818823ECF78091B900887F883221F033
:1002A000803321F082E0089580E0089581E0089590
:1002B00084EC8093BC00ECEBF0E080818823ECF7C9
:1002C0008091BB00089584E88093BC00ECEBF0E0E3
:1002D00080818823ECF78091BB0008955E9A00002E
:1002E0005E980895CF93DF93D82F662311F05C9A20
:1002F00001C05C985D9884B18F6084B9C5B1C07F3E
:100300008D2F82958F708C2B85B90E946E01DF70C6
:10031000DC2BD5B90E946E01CF60C5B9DF91CF91BA
:100320000895882311F05C9A01C05C985D9A84B1AD
:10033000807F84B95E9A000093B15E9800005E9A57
:10034000000023B12F70892F8295807F5E98822BC9
:10035000089580E00E9491018823DCF300C000C072
:1003600080E00E9491010895CF93C82F0E94A901B7
:1003700060E08C2F0E947201CF910895611104C03A
:1003800080580E94B401089580540E94B4010895D9
:1003900081E00E94B401089582E00E94B4010895B2
:1003A000CF93C82F0E94A901CA3049F4803410F0BD
:1003B00080E001C080E480580E94B40104C061E084
:1003C0008C2F0E947201CF910895CF93DF93EC019F
:1003D0002196FC018081882329F00E94D001899117
:1003E0008111FBCFDF91CF910895CF93C82F84B1B6
:1003F0008F6084B9549A559A569A8FE99FE0019775
:10040000F1F700C00000299A289A0E946E0181EE3F
:1004100094E00197F1F700C000000E946E0195E1A1
:100420009A95F1F700000E946E0185E18A95F1F737
:10043000000028980E946E0195E19A95F1F700005E
:1004400088E20E94B40188E00E94B4010E94C801C1
:1004500086E00E94B4018C2F0E94B401CF910895D0
:100460002FEF82E597E0215080409040E1F700C0F7
:10047000000080ED0E94050189E10E94410187E0B2
:100480000E9441010E94FC0080ED0E9405018BE664
:100490000E94410181E00E9441010E94FC0080ED28
:1004A0000E9405018AE10E94410180E00E94410111
:1004B0000E94FC0080ED0E9405018BE10E94410139
:1004C00088E10E9441010E94FC0080ED0E9405012C
:1004D00088E30E94410181E00E9441010E94FC00EA
:1004E000089580ED0E9405018BE30E94410181ED9A
:1004F0000E94D6000895CF930E9471020E94580175
:10050000C82F0E9458016C2F70E0762F6627682B49
:10051000072E000C880B990B0E94C605609384017E
:100520007093850180938601909387010E94580102
:10053000C82F0E9458016C2F70E0762F6627682B19
:10054000072E000C880B990B0E94C60560937C0156
:1005500070937D0180937E0190937F010E945801EA
:10056000C82F0E9458016C2F70E0762F6627682BE9
:10057000072E000C880B990B0E94C6056093700132
:100580007093710180937201909373010E945801DE
:10059000C82F0E9458016C2F70E0762F6627682BB9
:1005A000072E000C880B990B0E94C60560937801FA
:1005B0007093790180937A0190937B010E94580196
:1005C000C82F0E9458016C2F70E0762F6627682B89
:1005D000072E000C880B990B0E94C60560937401CE
:1005E0007093750180937601909377010E94580172
:1005F000C82F0E9458016C2F70E0762F6627682B59
:10060000072E000C880B990B0E94C6056093880189
:100610007093890180938A0190938B010E94580105
:10062000C82F0E9463016C2F70E0762F6627682B1D
:10063000072E000C880B990B0E94C6056093800161
:100640007093810180938201909383010E94FC004A
:10065000CF910895CF93DF93CDB7DEB7E6970FB66E
:10066000F894DEBF0FBECDBF0E94D0000E943002C2
:1006700060E875E280E090E00E949A048EE00E94BB
:10068000F5011E0125E1220E311CCE0101967C01EF
:100690000F2EF8E14F2EF1E05F2EF02D0F2EF8EF28
:1006A0007F2EF02D0F2EF4E28F2EF1E09F2EF02DF5
:1006B0000F2EF0E3AF2EF1E0BF2EF02D0F2EFEE354
:1006C000CF2EF1E0DF2EF02D0E947B0220E030E003
:1006D00040E858E360917C0170917D0180917E013A
:1006E00090917F010E9452066F8F78A389A39AA3ED
:1006F00020E030E040E858E36091700170917101B2
:1007000080917201909173010E9452066BA37CA3A9
:100710008DA39EA323E333E343E851E46091740186
:100720007091750180917601909177010E94520538
:100730006FA378A789A79AA723E333E343E851E49B
:10074000609188017091890180918A0190918B015B
:100750000E9452056BA77CA78DA79EA723E333E3D6
:1007600043E851E4609180017091810180918201A0
:10077000909183010E9452056FA778AB89AB9AAB29
:1007800020E030E04AEA53E4609178017091790109
:1007900080917A0190917B010E94520528EB3EE105
:1007A00042E152E40E94E6046BAB7CAB8DAB9EABA6
:1007B00020E030E040E858E36091840170918501C9
:1007C00080918601909187010E945206810122E06A
:1007D00043E00E94E1063F922F9280E091E09F93D8
:1007E0008F93FF92EF920E940107C7010E94D604E7
:1007F00022E043E06F8D78A189A19AA10E94E106D1
:100800003F922F928CE091E09F938F93FF92EF9213
:100810000E940107C7010E94D60422E043E06BA1B9
:100820007CA18DA19EA10E94E1063F922F925F9232
:100830004F92FF92EF920E940107C7010E94D604D7
:1008400022E043E06BA97CA98DA99EA90E94E10644
:100850001F927F923F922F929F928F92FF92EF92E0
:100860000E940107C7010E94D60422E043E06FA165
:1008700078A589A59AA50E94E1061F927F923F92D2
:100880002F92BF92AF92FF92EF920E9401070FB694
:10089000F894DEBF0FBECDBFC7010E94D60422E090
:1008A00043E06BA57CA58DA59EA50E94E1061F9245
:1008B0007F923F922F92DF92CF92FF92EF920E940F
:1008C0000107C7010E94D60422E043E06FA578A982
:1008D00089A99AA90E94E1061F927F923F922F92C6
:1008E0008CE491E09F938F93FF92EF920E94010717
:1008F000C7010E94D6040E94C8010E94CC018BE56A
:1009000091E00E94E50161E080E00E94BE0184E682
:1009100091E00E94E5018FEF90E722E08150904046
:100920002040E1F700C000000FB6F894DEBF0FBE14
:10093000CDBFCACEE1ECF0E0208128612083E2EC5B
:10094000F0E0208126602083DC01CB01880F991F15
:10095000AA1FBB1F880F991FAA1FBB1F9C01AD01B7
:10096000220F331F441F551F220F331F441F551FD3
:1009700060E074E284EF90E00E94BF068FEF820F88
:100980008093C400DA01C9010197A109B109892F37
:100990009A2FAB2FBB278093C50008958093C60084
:1009A000E0ECF0E0808185FFFDCF0895CF93DF93E9
:1009B000EC018881882331F021960E94CE04899130
:1009C0008111FBCFDF91CF9108955058BB27AA2703
:1009D0000E94FD040C9418060E940A0638F00E943A
:1009E000110620F039F49F3F19F426F40C94070601
:1009F0000EF4E095E7FB0C940106E92F0E9429060E
:100A000058F3BA17620773078407950720F079F443
:100A1000A6F50C944B060EF4E0950B2EBA2FA02DE4
:100A20000B01B90190010C01CA01A0011124FF279B
:100A3000591B99F0593F50F4503E68F11A16F04096
:100A4000A22F232F342F4427585FF3CF4695379595
:100A50002795A795F0405395C9F77EF41F16BA0B5A
:100A6000620B730B840BBAF09150A1F0FF0FBB1F08
:100A7000661F771F881FC2F70EC0BA0F621F731F51
:100A8000841F48F4879577956795B795F7959E3FAE
:100A900008F0B0CF9395880F08F09927EE0F97953F
:100AA000879508950E9466050C9418060E94110609
:100AB00058F00E940A0640F029F45F3F29F00C9498
:100AC000010651110C944C060C9407060E9429064D
:100AD00068F39923B1F3552391F3951B550BBB276D
:100AE000AA2762177307840738F09F5F5F4F220FB2
:100AF000331F441FAA1FA9F335D00E2E3AF0E0E8A9
:100B000032D091505040E695001CCAF72BD0FE2FF2
:100B100029D0660F771F881FBB1F26173707480786
:100B2000AB07B0E809F0BB0B802DBF01FF2793583E
:100B30005F4F3AF09E3F510578F00C9401060C94FB
:100B40004C065F3FE4F3983ED4F38695779567951E
:100B5000B795F7959F5FC9F7880F911D9695879573
:100B600097F90895E1E0660F771F881FBB1F621792
:100B700073078407BA0720F0621B730B840BBA0B50
:100B8000EE1F88F7E0950895E89409C097FB3EF4BE
:100B900090958095709561957F4F8F4F9F4F9923CA
:100BA000A9F0F92F96E9BB279395F6958795779548
:100BB0006795B795F111F8CFFAF4BB0F11F460FF08
:100BC0001BC06F5F7F4F8F4F9F4F16C0882311F060
:100BD00096E911C0772321F09EE8872F762F05C074
:100BE000662371F096E8862F70E060E02AF09A950F
:100BF000660F771F881FDAF7880F9695879597F904
:100C0000089597F99F6780E870E060E008959FEF8E
:100C100080EC089500240A94161617061806090693
:100C2000089500240A941216130614060506089562
:100C3000092E0394000C11F4882352F0BB0F40F4EA
:100C4000BF2B11F460FF04C06F5F7F4F8F4F9F4F2A
:100C5000089557FD9058440F551F59F05F3F71F0AC
:100C60004795880F97FB991F61F09F3F79F0879513
:100C70000895121613061406551FF2CF4695F1DF9C
:100C800008C0161617061806991FF1CF869571052C
:100C9000610508940895E894BB2766277727CB0160
:100CA00097F908950E9465060C9418060E940A069A
:100CB00038F00E94110620F0952311F00C940106E3
:100CC0000C94070611240C944C060E94290670F31C
:100CD000959FC1F3950F50E0551F629FF001729FE1
:100CE000BB27F00DB11D639FAA27F00DB11DAA1FF0
:100CF000649F6627B00DA11D661F829F2227B00D3D
:100D0000A11D621F739FB00DA11D621F839FA00DC7
:100D1000611D221F749F3327A00D611D231F849F17
:100D2000600D211D822F762F6A2F11249F5750406E
:100D30009AF0F1F088234AF0EE0FFF1FBB1F661FE9
:100D4000771F881F91505040A9F79E3F510580F0B2
:100D50000C9401060C944C065F3FE4F3983ED4F3E8
:100D6000869577956795B795F795E7959F5FC1F756
:100D7000FE2B880F911D9695879597F90895A1E20E
:100D80001A2EAA1BBB1BFD010DC0AA1FBB1FEE1F05
:100D9000FF1FA217B307E407F50720F0A21BB30B50
:100DA000E40BF50B661F771F881F991F1A9469F7CC
:100DB00060957095809590959B01AC01BD01CF0128
:100DC0000895EF920F931F93CF93DF93E80147FDB0
:100DD00002C034E001C034E1042E000C550B57FF73
:100DE00003C0519541955109E32E022F242FAE01E6
:100DF0000E940409CE01DF91CF911F910F91EF90D6
:100E00000895AEE0B0E0E7E0F7E00C94F40B0D8954
:100E10001E8986E08C831A8309838FEF9FE79E8368
:100E20008D83AE01475E5F4F6F89788DCE0101964D
:100E30000E942307EF81F885E00FF11F10822E96A4
:100E4000E4E00C94100CABE0B0E0E9E2F7E00C94C5
:100E5000E60B6C017B018A01FC01178216828381FB
:100E600081FFCCC1CE0101963C01F6019381F701CF
:100E700093FD859193FF81917F01882309F4BAC185
:100E8000853239F493FD859193FF81917F018532FD
:100E900029F4B60190E00E944C0BE7CF912C212C55
:100EA000312CFFE1F315D8F08B3279F038F4803231
:100EB00079F08332A1F4232D20611DC08D3261F0C1
:100EC000803369F4232D216016C0832D8260382E73
:100ED000E32DE4603E2E2AC0F32DF8601DC037FCE0
:100EE0002DC020ED280F2A3040F08E32B9F436FCA8
:100EF00081C1232D2064322E19C036FE06C08AE03F
:100F0000989E200D1124922E11C0EAE02E9E200DF5
:100F10001124222EF32DF0623F2E08C08C3621F4CE
:100F2000832D8068382E02C0883641F4F70193FD86
:100F3000859193FF81917F018111B3CF982F9F7D80
:100F40009554933028F40C5F1F4F9FE399830DC095
:100F5000833631F0833771F0833509F059C021C0F1
:100F6000F801808189830E5F1F4F88248394912C20
:100F7000530113C02801F2E04F0E511CF801A0806C
:100F8000B18036FE03C0692D70E002C06FEF7FEFC5
:100F9000C5010E94410B4C018201F32DFF773F2ECA
:100FA00016C0280122E0420E511CF801A080B18039
:100FB00036FE03C0692D70E002C06FEF7FEFC50100
:100FC0000E94360B4C01F32DF0683F2E820133FC5A
:100FD0001BC0822D90E088169906B0F4B60180E21D
:100FE00090E00E944C0B2A94F4CFF50137FC8591D8
:100FF00037FE81915F01B60190E00E944C0B2110F9
:101000002A9421E0821A91088114910471F7E8C0B2
:10101000843611F0893641F5F80137FE07C060814A
:101020007181828193810C5F1F4F08C06081718143
:10103000072E000C880B990B0E5F1F4FF32DFF76C8
:101040003F2E97FF09C090958095709561957F4FD1
:101050008F4F9F4FF0683F2E2AE030E0A3010E949F
:10106000880B882E861845C0853731F4232D2F7EB6
:10107000B22E2AE030E025C0932D997FB92E8F360D
:10108000C1F018F4883579F0B5C0803719F0883789
:1010900021F0B0C0E92FE061BE2EB4FE0DC0FB2DE3
:1010A000F460BF2E09C034FE0AC0292F2660B22E7C
:1010B00006C028E030E005C020E130E002C020E1B9
:1010C00032E0F801B7FE07C06081718182819381AF
:1010D0000C5F1F4F06C06081718180E090E00E5F61
:1010E0001F4FA3010E94880B882E8618FB2DFF77C7
:1010F0003F2E36FE0DC0232D2E7FA22E891458F4CC
:1011000034FE0BC032FC09C0832D8E7EA82E05C094
:10111000B82CA32C03C0B82C01C0B92CA4FE0FC05E
:10112000FE01E80DF11D8081803321F49A2D997E16
:10113000A92E09C0A2FE06C0B394B39404C08A2DA0
:10114000867809F0B394A3FC11C0A0FE06C0B214C7
:1011500088F4280C922C9B180EC0B21460F4B601CF
:1011600080E290E00E944C0BB394F7CFB21418F4D5
:101170002B1802C0982C212CA4FE10C0B60180E3CD
:1011800090E00E944C0BA2FE17C0A1FC03C088E7B0
:1011900090E002C088E590E0B6010CC08A2D867808
:1011A00059F0A1FE02C08BE201C080E2A7FC8DE2F3
:1011B000B60190E00E944C0B891438F4B60180E32C
:1011C00090E00E944C0B9A94F7CF8A94F301E80DBB
:1011D000F11D8081B60190E00E944C0B8110F5CF8B
:1011E000222009F442CEB60180E290E00E944C0B2E
:1011F0002A94F6CFF6018681978102C08FEF9FEF88
:101200002B96E2E10C94020CA9E0B0E0EAE0F9E0F0
:101210000C94EC0B6A01122FB02E2BE3201720F058
:10122000FF24F394F00E02C02CE3F22E0F2D27E0E2
:10123000AE014F5F5F4F0E945E0ABC014981842F5F
:101240008970813031F0E1FC06C0E0FE06C090E21A
:1012500005C09DE203C09BE201C090E05E2D50718D
:1012600043FF3CC0911102C083E001C084E08117BC
:1012700018F4212F281B01C020E051110BC0F601EA
:10128000822F30E2882319F031938150FBCFC20EB8
:10129000D11C20E0992329F0D6019C93F6013196C8
:1012A0006F01C6010396E2FE0AC03EE4D6013C93FC
:1012B00041E411964C93119712963C9306C03EE67A
:1012C000F601308341E641833283FC01322F40E254
:1012D000332309F442C041933150FACF42FF44C056
:1012E000911102C083E001C084E0811718F4212F1E
:1012F000281B01C020E051110BC0F601822F30E203
:10130000882319F031938150FBCFC20ED11C20E00D
:10131000992329F0D6019C93F60131966F01C601FD
:101320000396E2FE0BC039E4D6013C933EE41196ED
:101330003C93119736E412963C9307C039E6F601C8
:1013400030833EE6318336E63283FC01322F40E2C1
:10135000332319F041933150FBCFFC01E20FF11D13
:1013600010828EEF9FEFA6C021E030E0911102C005
:1013700020E030E0161617061CF4FB01319602C07F
:10138000E1E0F0E02E0F3F1FBB2021F0EB2DF0E05D
:10139000319602C0E0E0F0E02E0F3F1FE12FF0E0B9
:1013A0002E173F071CF4121B212F01C020E08E2DA9
:1013B000887159F4F601822F30E2882319F03193B5
:1013C0008150FBCFC20ED11C20E0992329F0D60119
:1013D0009C93F60131966F0151110BC0F601822FDB
:1013E00090E3882319F091938150FBCFC20ED11C5A
:1013F00020E00F2D060F9A81342F307144FF03C077
:10140000913309F40150101624F4093018F008E063
:1014100001C001E0AB0177FF02C040E050E0FB01FA
:10142000E41BF50BA1E0B0E0AC0FBD1FEA0FFB1F02
:101430008EE2A82E4B01801A91080B2D10E0119519
:10144000019511094F3FBFEF5B0721F4D601AC9224
:1014500011966D01641775072CF08416950614F427
:10146000818101C080E3415051093196D601119626
:101470007D014017510724F0D6018C936701E2CF1C
:101480006417750739F4963320F4953319F4311144
:1014900001C081E3F6018083F701822F90E2882367
:1014A00019F091938150FBCFF701E20FF11D1082EB
:1014B00080E090E02996ECE00C94080C283008F0CD
:1014C00027E03327DA01990F311D87FD91600096DF
:1014D0006105710539F432602E5F3D9330E32A9542
:1014E000E1F708959F3F30F080387105610509F0FC
:1014F0003C5F3C5F3D93913008F08068911DDF9325
:10150000CF931F930F93FF92EF92192F987F969589
:10151000E92F96959695E90FFF27EE53FF4F9927F0
:101520003327EE24FF24A701E701059008940794D0
:1015300028F4360FE71EF81E491F511D660F771F4E
:10154000881F991F0694A1F70590079428F4E70EC9
:10155000F81E491F561FC11D770F881F991F661F50
:101560000694A1F70590079428F4F80E491F561F1A
:10157000C71FD11D880F991F661F771F0694A1F7FB
:101580000590079420F4490F561FC71FD81F990FC5
:10159000661F771F881F0694A9F78491109517700E
:1015A00041F0D695C79557954795F794E7941A95C6
:1015B000C1F7E8E6F0E068941590159135916591D2
:1015C000959105907FE27395E118F10A430B560B54
:1015D000C90BD009C0F7E10CF11E431F561FC91FEC
:1015E000D01D7EF4703311F48A95E6CFE894015053
:1015F00030F0080F0AF40027021708F4202F239573
:10160000022F7A3328F079E37D932A95E9F710C009
:101610007D932A9589F60694979567953795179542
:101620001794E118F10A430B560BC90BD00998F037
:1016300023957E9173957A3308F070E37C932013A1
:10164000B8F77E9170617D9330F0839571E37D935F
:1016500070E32A95E1F71124EF90FF900F911F910D
:10166000CF91DF91992787FD90950895FC01059012
:10167000615070400110D8F7809590958E0F9F1F94
:101680000895FC016150704001900110D8F78095D9
:1016900090958E0F9F1F08950F931F93CF93DF9305
:1016A000FB01238121FD03C08FEF9FEF2CC022FFA0
:1016B00016C046815781248135814217530744F46F
:1016C000A081B1819D012F5F3F4F318320838C9397
:1016D000268137812F5F3F4F3783268314C08B01CC
:1016E000EC01FB010084F185E02D0995892BE1F6E1
:1016F000D80116968D919C911797019617969C93F9
:101700008E931697CE01DF91CF911F910F9108957F
:10171000FA01AA27283051F1203181F1E8946F9322
:101720006E7F6E5F7F4F8F4F9F4FAF4FB1E03ED0C8
:10173000B4E03CD0670F781F891F9A1FA11D680F66
:10174000791F8A1F911DA11D6A0F711D811D911D99
:10175000A11D20D009F468943F912AE0269F11240E
:101760003019305D3193DEF6CF010895462F477072
:10177000405D4193B3E00FD0C9F7F6CF462F4F70CD
:10178000405D4A3318F0495D31FD4052419302D02B
:10179000A9F7EACFB4E0A6959795879577956795D1
:1017A000BA95C9F700976105710508959B01AC01D1
:1017B0000A2E06945795479537952795BA95C9F7F8
:1017C000620F731F841F951FA01D08952F923F92D3
:1017D0004F925F926F927F928F929F92AF92BF9241
:1017E000CF92DF92EF92FF920F931F93CF93DF93ED
:1017F000CDB7DEB7CA1BDB0B0FB6F894DEBF0FBE4A
:10180000CDBF09942A88398848885F846E847D8496
:101810008C849B84AA84B984C884DF80EE80FD8098
:101820000C811B81AA81B981CE0FD11D0FB6F8940E
:0E183000DEBF0FBECDBFED010895F894FFCFCF
:10183E00204178203D202573206709002041792022
:10184E003D2025732067090020417A203D20257315
:10185E00206709002054203D20257325634309008D
:10186E00204778203D20257325632F7309002047DC
:10187E0079203D20257325632F73090020477A2098
:10188E003D20257325632F730D0A00417820417981
:10189E0020417A006D6178456D626564646564000F
:00000001FF
